:100000000218D8D2B3D28AD2AA22220219E8C28A0E
:10001000C2AA2202201AEF75F00A84C454F02FFFFE
:0200200022229A
:1000230002202AC2B67F0A7E00121B72D2B6E4FDFA
:100033007F21121E7AE4FD7FC6121E7AE4FD7F063D
:10004300121E7AE4FD7F13121E7AE4FD7F20121E36
:100053007AE4FD7F0C021E7A021CEC4A61636B7921
:100063005975656E000000000000000000002F00BD
:100073000000000700070000147F147F1400242AE7
:100083007F2A120062640813230036495522500068
:10009300000503000000001C224100000041221C57
:1000A300000014083E08140008083E080800000079
:1000B300A060000008080808080000606000000055
:1000C3002010080402003E5149453E0000427F4093
:1000D30000004261514946002141454B310018144B
:1000E300127F10002745454539003C4A49493000F5
:1000F3000171090503003649494936000649492972
:100103001E000036360000000056360000000814BA
:100113002241000014141414140000412214080096
:10012300020151090600324959513E007C12111255
:100133007C007F49494936003E41414122007F41CD
:1001430041221C007F49494941007F0909090100F7
:100153003E4149497A007F0808087F0000417F41FA
:1001630000002040413F01007F08142241007F40EE
:10017300404040007F020C027F007F0408107F0094
:100183003E4141413E007F09090906003E4151219C
:100193005E007F091929460046494949310001019A
:1001A3007F0101003F4040403F001F2040201F00CF
:1001B3003F4038403F006314081463000708700889
:1001C3000700615149454300007F41410000552A22
:1001D300552A55000041417F00000402010204003A
:1001E30040404040400000010204000020545454A9
:1001F30078007F484444380038444444200038445D
:1002030044487F00385454541800087E0901020002
:1002130018A4A4A47C007F080404780000447D4053
:1002230000004080847D00007F10284400000041CE
:100233007F4000007C04180478007C0804047800E4
:10024300384444443800FC24242418001824241877
:10025300FC007C0804040800485454542000043F64
:10026300444020003C4040207C001C2040201C00D7
:100273003C4030403C004428102844001CA0A0A06F
:100283007C004464544C44141414141414000000EB
:10029300000000000000000000000000000000005B
:1002A300000000000000000000000000000000004B
:1002B30000000000000000000000000000FEFEFE41
:1002C300FEFEFE0E0E0E0E0E0E0E0E0E7E7E7EF049
:1002D300F0F08080800000000000000000000000BB
:1002E30000000000000000000000000000FFFFFF0E
:1002F300FFFFFF000000000000000000000000FFFF
:10030300FFFFFFFFFF000000000000E0E0E0FCFC57
:10031300FC1C1C1C1C1C1CFCFCFCE0E0E0FFFFFFA5
:10032300FFFFFF000000000000000000000000FFCE
:10033300FFFFFFFFFF000000000000FFFFFFFFFFC4
:10034300FF0000000000000000000000007F7F7F2E
:100353007F7F7F7070707070707070707E7E7E0FA4
:100363000F0F0101010000000000000F0F0F7F7F3E
:100373007F7070707070707E7E7E0E0E0E000000B7
:10038300000000000000000000000000000000006A
:10039300000000000000000000000000000000005A
:1003A30000000000000000000000000000000060EA
:1003B30060E0E06060C080000000000000E0E060FA
:1003C300606060606060E0C000000000000000004A
:1003D300000000000000000000000000000000001A
:1003E300000000000000000000000000000000000A
:1003F30000000000000000000000000000000000FA
:100403000000000000FFFF00000187FE78000000ED
:1004130000FFFF606060606060603F3F000000803D
:10042300C066666666666666FCF8000000F8FC0E49
:1004330006060606060CFEFE000000F8FCCEC6C645
:10044300C6C6C6CEFCF8000000FEFE180C06060663
:10045300061E1C0000000018181F1F18180E0701A5
:1004630000000000001F1F0000000000000000004B
:10047300000000070F1818181818180C1F1F000089
:100483000003878E8C8C8C8C8CC6FF7F000000074A
:100493000F1C18181818181818180000001F1F0030
:1004A3000000000000000000000000000000000049
:1004B3000000000000000000000000000000000039
:1004C30000000000000080C0C0C08000001C3E3E51
:1004D3003E1C000000000171F9F9F97101010000EF
:1004E3000000000000000000000000000000000009
:1004F30000000000000000000000000000000000F9
:1005030000000000000000000000000000000000E8
:1005130000000000000000000000030707070300BD
:100523000000000000000000000000000000006068
:10053300F0F0600000000000000000000000000078
:1005430000000000000000000000000000000000A8
:100553000000000000000000000000000000000098
:100563000000000000000000000000000000000088
:1005730003030000E0E0E0000000000000307878B2
:100583003000000000000000000000000000000038
:100593000000000000000000000000000000000058
:1005A300000000000000000404FC04040400FC102C
:1005B30010E00090505050F00000F01010E00000E8
:1005C300FC20D000205050900000B0B0000000008C
:1005D300000000000000000000000080C040404018
:1005E30040783F071FFF0838F808485870C00000DC
:1005F3000000000000000000000000000081808077
:10060300000001000001000101010101808081005F
:10061300000100000100004101010100000001018F
:100623000000000000000080000000000000000740
:100633001C1010101010101010131210131010189B
:100643008B0F0E00000000000000000000000000FF
:10065300008F010F0000A33C070000000000000012
:100663000F020200008F01010000090F08000006BD
:100673000B0B00000F010E000006090F00008B0B8F
:100683000D000000000000000C0D0E00000F010E15
:10069300000086090F000080000000000000000039
:1006A300000000000107090400008F010E0000068E
:1006B3000B0B000080000000010709040000060B7B
:1006C3000B00008C0D0E000000000000000B0B0D52
:1006D30000000F010E000006090600001F898F00AD
:1006E30000000000000107090400000F010E0000D4
:1006F3000202020000000000000C0D0E00010709B9
:1007030004000000000000008F06090000060B0B28
:1007130000001F090F00010709040000000000008A
:100723000F010E010E00060B0B000000000000007D
:10073300010F00000006090600000F010100000080
:10074300000000000000000000000000000C0D0E7F
:1007530000000F010E000000000000000F010E005A
:1007630000060906000007080F00000F0101000042
:100773000004000000000000000000000000000072
:100783000000000000000000000000000000000066
:100793000000000000000000000000000000000056
:1007A3000000000000000000F0F0F0F0F0F0F0F0C6
:1007B300F0F0F0F0F0F0F0F0F0F0F0F0F0F0F0F036
:1007C3000000000000000000000000000000000026
:1007D3000000000000000000000000000000000016
:1007E3000000000000000000000000000000000006
:1007F300000000000000000000000000FFFFFFFFFA
:10080300FFFFFFFF000000000000000000000000E9
:100813000F0F0F0FFFFFFFFFF0F0F0F000000000DD
:1008230000000000000000000000000000000000C5
:1008330000000000000000000000000000000000B5
:1008430000000000000000000000000000000000A5
:10085300FFFFFFFFFFFFFFFF00000000000000009D
:100863000000000000000000FFFFFFFFFFFFFFFF8D
:10087300000000000000F0F0F0F0FFFFFFFF0F0F9B
:100883000F0F0F0F0F0FFFFFFFFFF0F0000000002F
:100893000000000000000000000000000000000055
:1008A30000000000FFFFFFFFFFFFFFFF000000004D
:1008B300000000000000000000000000FFFFFFFF39
:1008C300FFFFFFFF000000000000FFFFFFFFFFFF2F
:1008D300FFFF000000000000000000000000000017
:1008E3000000000000000000000000000000000005
:1008F3000000000000000000FFFFFFFFFFFFFFFFFD
:10090300000000000000000000000000F0F0F0F024
:10091300FFFFFFFF0F0F0F0F000000000000FFFF9E
:10092300FFFFFFFFFFFF0000000000000000F0F0EA
:10093300F0F0F0F0000000000000000000000000F4
:100943000000000000000000000000000F0F0F0F68
:100953000F0F0F0F0F0F0F0F0F0F0F0F0F0F0F0FA4
:100963000F0F0F0F00000000000000000000000048
:100973000000000000000F0F0F0F0F0F0F0F0F0FDE
:100983000F0F0F0F0F0F000000000000000000000A
:100993000000000000000000000000000000000054
:1009A3000000000000000000000080E0E0F0F0F82C
:1009B300F8F8F8F8F8F8F8F8F8F8F8F8F8F8F8F8B4
:1009C300F8F8F8F8F8F8F8F8F8F8F8F8F8F8F8F8A4
:1009D300F0F0E0C080000000000000000000000014
:1009E3000000000000000000000000000000000004
:1009F30000000000000000000000000000FFFFFFF7
:100A0300FFFF0301000000000000000000000000E1
:100A130000000000000000000000000000000000D3
:100A23000000000103FFFFFFFFFC000000000000C7
:100A330000000000000000000000000000000000B3
:100A430000000000000000000000000000000000A3
:100A530000FFFFFFFFFF0000000000000000000098
:100A63000000000000000000000000000000000083
:100A7300000000000000000000FFFFFFFFFF000078
:100A83000000000000000000000000000000000063
:100A93000000000000000000000000000000000053
:100AA3000000000000FFFFFFFFFF00000000000048
:100AB3000000000000000000000000000000000033
:100AC30000000000000000000000000000FFFFFF26
:100AD300FFFF000000000000000000000000000015
:100AE30000000000007C7C7C7C7C7C7C7C7C7C7CAF
:100AF3007C7C7C7C7C7C7C7C7C7F7F7F7F7F7F7F1E
:100B03007F7F7F7F7F7F7F7F7F7F7F7F7F7F7F7FF2
:100B13007F7F7F7F7F7F7F7F7F7F7F7F7F7F7F7FE2
:100B23007F7F7F7F7F7F7C7C7C7C7C7C7C7C7C7CF0
:100B33007C7C7C7C7C7C7C7C7C0000000000000056
:100B430000000000000000000000000000000000A2
:100B53000000000000000000000000000000000092
:100B63000000000000000000000000000000000082
:100B73000000000000000000000000000000000072
:100B83000000000000000000000000000000000062
:100B93000000000000000000000000000000000052
:100BA3000000000000000000000000000000000042
:100BB3000000000000000000000000000000000032
:100BC3000000000000000000000000000000000022
:100BD3000000000000000000000000000000000012
:100BE3000000000000000000000000000000000002
:100BF30000000000000000000000000000000000F2
:100C030000000000000000000000000000000000E1
:100C130000000000000000000000000000000000D1
:100C230000000000000000000000000000000000C1
:100C330000000000000000000000000000000000B1
:100C43000000000000000000000080E0E0F0F0F889
:100C5300F8F8F8F8F8F8F8F8F8F8F8F8F8F8F8F811
:100C6300F8F8F8F8F8F8F8F8F8F8F8F8F8F8F8F801
:100C7300F0F0E0C080000000000000000000000071
:100C83000000000000000000000000000000000061
:100C930000000000000000000000000000FFFFFF54
:100CA300FFFF03010000000000000000000000003F
:100CB3000000000000000000000000000000000031
:100CC3000000000103FFFFFFFFFC00000000000025
:100CD300000000000000000000000000007C7C7C9D
:100CE3007C7C7C7C7C7C7C7C7C7C7C7C7C7C7C7C41
:100CF3007C7F7F7F7F7F7F7F7F7F7F7F7F7F7F7F04
:100D03007F7F7F7F7F7F7F7F7F7F7F7F7F7F7F7FF0
:100D13007F7F7F7F7F7F7F7F7F7F7F7F7F7F7C7CE6
:100D23007C7C7C7C7C7C7C7C7C7C7C7C7C7C7C7C00
:100D33007C00000000000000000000000000000034
:100D430000000000000000000000000000000000A0
:100D53000000000000000000000000000000000090
:100D63000000000000000000000000000000000080
:100D73000000000000000000000000000000000070
:100D83000000000000000000000000000000000060
:100D93000000000000000000000000000000000050
:100DA3000000000000000000000000000000000040
:100DB3000000000000000000000000000000000030
:100DC3000000000000000000000000000000000020
:100DD3000000000000000000000000C04040404050
:100DE3008000000000000000000000000000000080
:100DF30000000000000000000000000000000000F0
:100E030000000000000000000000000000000000DF
:100E1300000000000000400000000000000000008F
:100E23000000000000000000000000000000007F40
:100E3300080808080700007E040002020400003CC2
:100E4300424242423C000018004242420000003C41
:100E5300525252525C000000444A4A5220000000A1
:100E6300444A4A5220000000427E40000000007EB7
:100E73000402027C0000003C42424224FE000000C7
:100E8300000000000000000000000000000000005F
:100E9300000000000000000000000000000000004F
:100EA300000000000000000000000000000000003F
:100EB300000000000000000000000000000000002F
:100EC300000000000000000000000000010101011B
:100ED300000000000000000000000000000000000F
:100EE30000000000000000000000000000000000FF
:100EF30000000000000000000003030000000000E9
:100F030000030300000000000003030000000000D2
:100F130000000000000000000000000000000000CE
:100F230000000000000000000000000000000000BE
:100F330000000000000000000000000000000000AE
:100F4300000000000000000000000000000000009E
:100F5300000000000000000000000000000000008E
:100F6300000000000000000000000000000000007E
:100F730000000000000000000000000000BB0106AC
:100F830089828A83E0225002E722BBFE02E32289A0
:100F9300828A83E49322BB010CE58229F582E583EF
:100FA3003AF583E0225006E92582F8E622BBFE06E5
:100FB300E92582F8E222E58229F582E5833AF58381
:100FC300E49322BB010689828A83F0225002F7222E
:100FD300BBFE01F322EF8DF0A4A8F0CF8CF0A42880
:100FE300CE8DF0A42EFE22BC000BBE0029EF8DF0A7
:100FF30084FFADF022E4CCF875F008EF2FFFEE3359
:10100300FEEC33FCEE9DEC984005FCEE9DFE0FD507
:10101300F0E9E4CEFD22EDF8F5F0EE8420D21CFEDB
:10102300ADF075F008EF2FFFED33FD400798500644
:10103300D5F0F222C398FD0FD5F0EA22C2D5EC30E9
:10104300E709B2D5E4C39DFDE49CFCEE30E715B29D
:10105300D5E4C39FFFE49EFE120FEAC3E49DFDE4C3
:101063009CFC8003120FEA30D507C3E49FFFE49E84
:10107300FE2275F008758200EF2FFFEE33FECD33AD
:10108300CDCC33CCC58233C5829BED9AEC99E582F6
:1010930098400CF582EE9BFEED9AFDEC99FC0FD582
:1010A300F0D6E4CEFBE4CDFAE4CCF9A88222B80072
:1010B300C1B90059BA002DEC8BF084CFCECDFCE53D
:1010C300F0CBF97818EF2FFFEE33FEED33FDEC3361
:1010D300FCEB33FB10D703994004EB99FB0FD8E5E6
:1010E300E4F9FA227818EF2FFFEE33FEED33FDEC2F
:1010F30033FCC933C910D7059BE99A4007EC9BFC25
:10110300E99AF90FD8E0E4C9FAE4CCFB2275F010B0
:10111300EF2FFFEE33FEED33FDCC33CCC833C810D5
:10112300D7079BEC9AE899400AED9BFDEC9AFCE803
:1011330099F80FD5F0DAE4CDFBE4CCFAE4C8F92250
:10114300EB9FF5F0EA9E42F0E99D42F0E89C45F002
:1011530022ECF208EDF208EEF208EFF222D083D08F
:1011630082E493F208740193F208740293F2087410
:101173000393F2740473121F5E7A0779A012179116
:10118300C2C57FE87E03121B72D2A7D2C57BFF7A4A
:101193000379B01217937FB87E0B121B7212178D4F
:1011A30030B3FD780BE2FC08E2FD08E2FE08E2FF43
:1011B30078B4121154E478A0F208F27BFF7A0B7929
:1011C30090121793E478B2F208F230B3FD78B4E2E8
:1011D300FB08E2F908E2FA08E2CBF8C000780BE278
:1011E300FC08E2FD08E2FE08E2D000C39BFFEE9A92
:1011F300FEED99FDEC98FCE47B707A17F9F8D312B5
:10120300114350C678B4E2FB08E2F908E2FA08E2B7
:10121300CBF8C000780BE2FC08E2FD08E2FE08E22E
:10122300D000C39BFFEE9AFEED99FDEC98FCE47BA6
:101233000AFAF9F81210B178A1E22FF218E23EF29D
:10124300780BE2FC08E2FD08E2FE08E2FF78B41244
:101253001154D2A712178D20B3FD78B4E2FB08E234
:10126300F908E2FA08E2CBF8C000780BE2FC08E2E6
:10127300FD08E2FE08E2D000C39BFFEE9AFEED9963
:10128300FDEC98FCE47B707A17F9F8D31211435004
:10129300C678B4E2FB08E2F908E2FA08E2CBF8C048
:1012A30000780BE2FC08E2FD08E2FE08E2D000C38E
:1012B3009BFFEE9AFEED99FDEC98FCE47B0AFAF9AC
:1012C300F81210B178A1E22FF218E23EF2780BE2A5
:1012D300FC08E2FD08E2FE08E2FF78B41211547B39
:1012E300FF7A0B7990121793C2A778B3E22401F225
:1012F30018E23400F2C308E2940A18E2648094808E
:1013030050030211CD7FE87E03121B7278A0E2FE28
:1013130008E2FF7C007D14120FEA78A0EEF208EFDA
:10132300F27BFF7A0D798812179378A0E2FE08E228
:10133300FF121BCAE4FDFF1219647BFF7A00795E7A
:101343007D0A7C001215D480F1E478B8F208F20823
:10135300F208F2780BE2FC08E2FD08E2FE08E2FF85
:10136300781A121154781AE2FC08E2FD08E2FE082A
:10137300E22401FFE43EFEE43DFDE43CFC780BE2A5
:10138300FB08E2F908E2FA08E2CBF8C31211434082
:10139300D4780BE2FC08E2FD08E2FE08E2FF781ACB
:1013A300121154781AE2FC08E2FD08E2FE08E22476
:1013B3001CFFE43EFEE43DFDE43CFC780BE2FB084D
:1013C300E2F908E2FA08E2CBF8C312114340D4E48D
:1013D30078B8F208F212149EEF64AA600302149D17
:1013E30078B9E22401F218E23400F2C308E294056A
:1013F30018E26480948040DD12149EEF64CC600395
:1014030002149DE478B8F208F212149E78B8E2FC54
:1014130008E27BFE24BAF974003CFAEF120FC6E22D
:101423002401F218E23400F2C308E2940418E264DF
:1014330080948040D4E478B8F208F278BAE2FE08E7
:10144300E2FFC378B9E29FEE6480F5F018E26480AE
:1014530095F0501912149E78B808E2241EF8EFF2A2
:1014630078B9E22401F218E23400F280CE12149E1D
:10147300BFCC27E478B8F208F212149EBFAA1B78F7
:10148300B9E22401F218E23400F2C308E294051829
:10149300E26480948040E212002122E478BCF208E6
:1014A300F208F208F208F2087407F2E408F278C0CE
:1014B300F2087407F2780BE2FC08E2FD08E2FE088A
:1014C300E2FF781A121154781AE2FC08E2FD08E2EE
:1014D300FE08E22401FFE43EFEE43DFDE43CFC782B
:1014E3000BE2FB08E2F908E2FA08E2CBF8C31211B7
:1014F3004340D4780BE2FC08E2FD08E2FE08E2FF79
:10150300781A121154781AE2FC08E2FD08E2FE0888
:10151300E22401FFE43EFEE43DFDE43CFC780BE203
:10152300FB08E2F908E2FA08E2CBF8C312114350D0
:101533001420C60478BF800278BDE22401F218E2C9
:101543003400F280C078BCE2FE08E2FFC378BFE259
:101553009FEE6480F5F018E2648095F0501878C22D
:10156300E2FF78C008E2FE7401A806088002C333D4
:10157300D8FC5F78C2F2780BE2FC08E2FD08E2FED9
:1015830008E2FF781A121154781AE2FC08E2FD0807
:10159300E2FE08E22402FFE43EFEE43DFDE43CFCFF
:1015A300780BE2FB08E2F908E2FA08E2CBF8C3128F
:1015B300114340D478C1E224FFF218E234FFF20869
:1015C300E2F4700318E2F460030214B878C2E2FF95
:1015D3002278C3EBF208EAF208E9F208ECF208ED2C
:1015E300F2E408F208F2C283D282780BE2FC08E24A
:1015F300FD08E2FE08E2FF781A121154E478C8F2FB
:1016030008F27FAA12184678C9E22401F218E234DC
:1016130000F2C308E2940618E26480948040E37FFA
:10162300CC121846E478C8F208F278C8E2FE08E261
:10163300FFC39404EE64809480501E7BFE74C62F17
:10164300F974003EFA120F80FF12184678C9E2249B
:1016530001F218E23400F280D1E478C8F208F2789B
:10166300C6E2FE08E2FF08E2FC08E2FDC39FEE6467
:1016730080F8EC648098502278C3E2FB08E2FA0811
:10168300E2F98D828C83120F99FF12184678C9E212
:101693002401F218E23400F280C57FCC121846E42C
:1016A30078C8F208F27FAA12184678C9E22401F238
:1016B30018E23400F2C308E2940618E264809480CE
:1016C30040E3C282D28322840B00000001C1008B5D
:1016D3000000000000000000000000008B0F4A61C2
:1016E300636B79205975656E0009100000000000D6
:1016F30000000000A0801E000000000000000000A9
:1017030000000000000000000000000000000000D6
:1017130000000000000000000000000000000000C6
:1017230000000000000000000000000000000000B6
:1017330000000000000000000000000000000000A6
:101743000000000000000000000000000000000096
:101753000000000000000000000000000000000086
:101763000000000000000000000000000000000076
:1017730000000000000000829E000082A0000082A2
:10178300B2002084B400000000007A0979987BFF3E
:1017930078C87454F2087430F2E4FDFF78C3EFF2B2
:1017A30008EDF208EBF208EAF208E9F278C9E2FF81
:1017B30054077008EF131313541F800978C9E213F9
:1017C3001313541F0478CEF2E478CCF208F278CEE7
:1017D300E2FFC318E29F18E29400506678C3E2FF69
:1017E30008E2FD121FD6E478CAF208F278C8E2FFD5
:1017F3007E0078CAE2FA08E2FBC39FEA9E503108F2
:10180300E2FC08E2FD120FD8EF2BF582EE3AF583E6
:1018130078C5E2FB08E2FA08E2F9120F99FF7D01AD
:10182300121E7A78CBE22401F218E23400F280BC73
:1018330078C4E204F278CDE22401F218E23400F233
:10184300808C2278CAEFF208E4F2087407F218E4F5
:10185300F2087407F2781AE2FC08E2FD08E2FE08D7
:10186300E22404FFE43EFEE43DFDE43CFC780BE2AD
:10187300FB08E2F908E2FA08E2CBF8C3121143507D
:101883002C78CB08E2FF74017E00A807088005C30B
:1018930033CE33CED8F9FDAC0678CAE2FF7E00ED35
:1018A3005FFF12103FEE4F24FF92C780A8780BE230
:1018B300FC08E2FD08E2FE08E2FF781A12115478F0
:1018C300CCE224FFF218E234FFF208E2F4700318CA
:1018D300E2F4708122787FE4F6D8FD758120021945
:1018E3001F021179E493A3F8E493A34003F6800164
:1018F300F208DFF48029E493A3F85407240CC8C347
:1019030033C4540F4420C8834004F456800146F680
:10191300DFE4800B01020408102040809016CAE423
:101923007E019360BCA3FF543F30E509541FFEE4DE
:1019330093A360010ECF54C025E060A840B8E493A0
:10194300A3FAE493A3F8E493A3C8C582C8CAC583E2
:10195300CAF0A3C8C582C8CAC583CADFE9DEE78067
:10196300BE78C3EFF208EDF208EBF208EAF208E9F9
:10197300F2E408F208F218F208F278C5E2FB08E292
:10198300FA08E2F908E2FE08E2FFF5828E83120FFD
:1019930099605178C3E2FD7C00EF2DFBEC3EFA7DAC
:1019A30010AF03FE12103F78C4E22FFDC0057C0088
:1019B3007D10AF03AE0212103FAF0578C5E2FB08FE
:1019C300E2FA08E2F908E2FC08E2F5828C83120FDE
:1019D30099FBD005121D6B78C9E22401F218E23499
:1019E30000F2809622C0E0C0F0C083C082C0D075F0
:1019F300D008780BE2FC08E2FD08E2FE08E22401CD
:101A0300FFE43EFEE43DFDE43CFC780B121154E49C
:101A13007BBD7A22F9F8C008780BE2FC08E2FD08E6
:101A2300E2FE08E2FFD0081210B1AC08AD09AE0A1D
:101A3300AF0BE4FBFAF9F8C31211437002B200A230
:101A43000092A7D0D0D082D083D0F0D0E03278D229
:101A5300EDF208EBF2E4FE120016AE07AD067F06C8
:101A6300121DA978D2E2FF120016AE07AD067F055C
:101A7300121DA978D3E2FF120016AE07AD067F044C
:101A8300121DA978D4E2FF120016AE07AD067F023D
:101A9300121DA978D5E2FF120016AE07AD067F012D
:101AA300121DA978D6E2FF120016AE07AD07E4FFB8
:101AB300021DA978D7EFF208EDF208E4F2087409E1
:101AC300F2C3EB9401EA940040337C007D0AAF0338
:101AD300AE02120FEAED2430FF78D908E2FD24FFAD
:101AE300F218E234FFF274002DF8EFF27C007D0A65
:101AF300AF03AE02120FEAAA06AB0780C478D7E29F
:101B0300FF08E2FD0808E224FFF9E4FA7BFE02196C
:101B13006478E1EFF2E4F978E1E2FFA801088002DA
:101B2300C333D8FC30E704D2918002C2917F017E97
:101B330000121D2DD2907F057E00121D2DC290092B
:101B4300E9B408D37F027E00121D2DD2917F027E5D
:101B530000121D2DD2907F037E00121D2D309104A3
:101B6300C2018002D201C2907F027E00021D2D7845
:101B7300C3EEF208EFF2780BE2FC08E2FD08E2FEA6
:101B830008E2FF78C512115478C3E2FE08E2FF7C35
:101B9300007D14120FD8E4FD78C5E2FB08E2F908D2
:101BA300E2FA08E2CBF8EB2FFFEA3EFEED39FDEC5B
:101BB30038FC780BE2FB08E2F908E2FA08E2CBF81A
:101BC300C312114340C22278C3EEF208EFF27B0E38
:101BD3007A0078C3E2FE08E2FFC39401EE9400406A
:101BE3002D7C007D0A120FEAED2430FF74A22BF83E
:101BF300EFF278C3E2FE08E2FF7C007D0A120FEAEF
:101C030078C3EEF208EFF2EB1B70C71A80C474A31B
:101C13002BF9E4FA7BFE22E478E2F2D291F97F0118
:101C23007E00121D2DC2907F057E00121D2DD290C5
:101C33007F037E00121D2D78E2E225E0F23091034E
:101C4300E204F27F027E00121D2D09E9B408CFC21F
:101C5300907F027E00121D2D78E2E2FF22EF75F0E5
:101C63000A842430F510EF75F00A84E5F02430F58A
:101C730011ED75F00A842430F513ED75F00A84E54F
:101C8300F02430F514EB75F00A842430F516EB7567
:101C9300F00A84E5F02430F51775122D75152DE43F
:101CA300F51822EF75F00A842430F510EF75F00A69
:101CB30084E5F02430F511ED75F00A842430F51332
:101CC300ED75F00A84E5F02430F514EB75F00A8421
:101CD3002430F516EB75F00A84E5F02430F517751A
:101CE300122D75152DE4F51822C0E0C0F0C083C095
:101CF30082C0D075D000C000C001C002C003C004C0
:101D0300C005C006C007438FDF12134C438F20D09A
:101D130007D006D005D004D003D002D001D000D024
:101D2300D0D082D083D0F0D0E032AD07AC06E4FB54
:101D3300FAEDAE047802C333CE33CED8F9FFC3EB4A
:101D43009FEA9E502212000A78CFE4F2087402F24E
:101D530078CF08E224FFFFF218E234FFF24F70F06D
:101D6300EB1B70CD1A80CA2278CAEBF2EF75F0062E
:101D7300A4FF121FD678CAE224E0F2E4F978CAE29B
:101D830075F006A42468F582E5F03400F583E58256
:101D930029F582E43583F583E493FF7D01121E7AEE
:101DA30009E9B406D82278DBEFF208EDF2121EF54A
:101DB3007FD0121B142001037F002278DBE2FF1285
:101DC3001B142001037F002278DCE2FF121B142086
:101DD30001037F0022121FBB7F0A7E00121D2D7F8D
:101DE3000122EF75F00A842430F510EF75F00A84B0
:101DF300E5F02430F511ED75F00A842430F513ED88
:101E030075F00A84E5F02430F51475122E7515600B
:101E1300751643E4F517227F02121F19EF543FFF93
:101E2300121FEA78DDEFF27F01121F19121FEA7801
:101E3300DEEFF2E4FF121F19121FEAAE0778DDE2AC
:101E4300FF08E2FDAB06021C607F06121F19121F7A
:101E5300EA78DFEFF27F05121F19121FEA78E0EF2D
:101E6300F27F04121F19121FEAAE0778DFE2FF08A0
:101E7300E2FDAB06021CA6C2B5ED24FF92B4E4FE5C
:101E8300EF30E704D2C08002C2C0EF25E0FFC2CD2D
:101E9300D2CD0EEEB408E9D2B4D2B5D2C07FC87E9B
:101EA30000021D2DC2A9C28CC28D74FFFFFEFDFC72
:101EB300780BE2FB08E2F908E2FA08E2CBF8C31276
:101EC30011434009780B1211600000029A22E4FDCD
:101ED300FF121FD6E478C3F2E4F97D01E4FF121E7A
:101EE3007A09E9B454F478C3E204F2E2C3940640F5
:101EF300E722D2917F017E00121D2DD2907F057EB5
:101F030000121D2DC2917F057E00121D2DC2907FF0
:101F1300027E00021D2D78E3EFF2121EF57FD01230
:101F23001B142001037F002278E3E2FF121B14201D
:101F330001037F0022121F9D22200304C29180020D
:101F4300D2917F037E00121D2DD2907F057E001259
:101F53001D2DC2907F027E00021D2D12200B121F29
:101F6300FBD2AF120026121ED1D2CCD297D296D278
:101F7300951220247F0A7E00021B727F11121F1903
:101F8300121FEA78E4EFF27F12121F19121FEAAE52
:101F93000778E4E2FFAD06021DE5121EF57FD112BC
:101FA3001B142001037F0022121C1AA907D203125B
:101FB3001F3C121FBBAF0122C2917F017E00121D85
:101FC3002DD2907F057E00121D2DD2917F047E00BD
:101FD300021D2DA907ED4440FFE4FD121E7AE944DA
:101FE30080FFE4FD021E7AEF540FFEEFC4540F543A
:101FF3000F75F00AA42EFF22780B12116000000265
:102003009AC28DD28CD2A922438E805389F0758ACD
:10201300D7758CFDC28D22C2A720B304D2A780F945
:0A20230032438F20D2AF22B2843284
:00000001FF
